:020000040000FA
:1000000008080020D5000000EF000000F10000000B
:1000100000000000000000000000000000000000E0
:10002000000000000000000000000000F3000000DD
:100030000000000000000000F5000000F7000000D4
:10004000F9000000F9000000F9000000F9000000CC
:10005000F900000000000000F9000000F9000000B5
:10006000F9000000F9000000F9000000F9000000AC
:10007000F9000000F9000000F9000000F90000009C
:10008000F9000000F9000000F9000000F90000008C
:10009000F9000000F9000000F9000000F90000007C
:1000A000F9000000F900000000000000000000005E
:1000B0000000000000000000000000000000000040
:1000C0000348854600F022F800480047A9020000D6
:1000D000080800200321094802680A430260084812
:1000E00002680A4302600748804707480047FEE766
:1000F000FEE7FEE7FEE7FEE7FEE70000240500401E
:100100005405004031010000C1000000064C0125EB
:10011000064E05E0E36807CC2B430C3C98471034AF
:10012000B442F7D3FFF7D0FF3003000050030000C4
:1001300010B500F095F8002805D01F491D4848600B
:10014000C8131E4988611E48018CC9B201290BD110
:10015000828C120708D1028D1206120F042A03D1D5
:10016000828D1206120F0AD0012921D1818C090734
:100170001ED1018D0906090F0A2904D007E0114A92
:1001800001219160F5E7828D1206120F05D00D292D
:100190000ED1808D0006000F0AD10B48016801299D
:1001A00004D00A49016001680129FCD1C0214161E4
:1001B00010BD0000DFFF07C000050040006C0040DC
:1001C000C00F00F00006004000EC064075930000F0
:1001D00002E008C8121F08C1002AFAD17047704710
:1001E000002001E001C1121F002AFBD1704700006E
:1001F00005490B5C05494A68012098400346934332
:100200008B601040C8607047280300000005005054
:1002100010B50349085C012100F07AF810BD000018
:10022000280300007CB50024074E2546305D0122DE
:10023000009500231146019500F056F8641C042C2B
:10024000F4D300F003F87CBD2803000010B50024AF
:100250002046FFF7DDFF641C042CF9D310BD00001D
:100260001048018CC9B2012917D1818C090714D11A
:10027000018D09060A0F03D1828D1206120F0ED0CE
:10028000090F012903D1828D1206120F07D003290D
:1002900003D1808D0006000F01D00020704701209F
:1002A00070470000C00F00F0FFF7BCFF0C4D0D4E73
:1002B0006F0100242046FFF79BFF3168284600BFEE
:1002C00000BF00BF00BF00BF00BF00BF00BFB942FA
:1002D00000D000BF0138F2D1641C042CEADBE8E74F
:1002E00020A107000000002070B552000A439900C9
:1002F000049D0A432902059E0A43310405240A434A
:10030000240780000721001909024018026070BD0F
:10031000012282400348002901D082607047C260F8
:10032000704700000005005015161718111213141D
:10033000500300000000002004000000D001000075
:10034000540300000400002004080000E001000045
:040350000024F40091
:04000005000000C136
:00000001FF
